{
  "contractName": "ReentrancyGuard",
  "abi": [
    {
      "anonymous": false,
      "inputs": [
        {
          "indexed": true,
          "internalType": "address",
          "name": "sender",
          "type": "address"
        },
        {
          "indexed": false,
          "internalType": "uint256",
          "name": "amount",
          "type": "uint256"
        }
      ],
      "name": "LogDeposit",
      "type": "event"
    },
    {
      "inputs": [
        {
          "internalType": "address",
          "name": "",
          "type": "address"
        }
      ],
      "name": "sales",
      "outputs": [
        {
          "internalType": "uint256",
          "name": "",
          "type": "uint256"
        }
      ],
      "stateMutability": "view",
      "type": "function"
    },
    {
      "inputs": [
        {
          "internalType": "uint256",
          "name": "_amount",
          "type": "uint256"
        }
      ],
      "name": "deposit",
      "outputs": [],
      "stateMutability": "payable",
      "type": "function"
    },
    {
      "inputs": [],
      "name": "getBal",
      "outputs": [
        {
          "internalType": "uint256",
          "name": "",
          "type": "uint256"
        }
      ],
      "stateMutability": "view",
      "type": "function"
    }
  ],
  "bytecode": "0x608060405234801561001057600080fd5b50610471806100206000396000f3fe6080604052600436106100345760003560e01c806325caa26214610039578063b6b55f2514610064578063c6b9f06a14610080575b600080fd5b34801561004557600080fd5b5061004e6100bd565b60405161005b9190610235565b60405180910390f35b61007e60048036038101906100799190610281565b6100c5565b005b34801561008c57600080fd5b506100a760048036038101906100a2919061030c565b6101ee565b6040516100b49190610235565b60405180910390f35b600047905090565b60008111610108576040517f08c379a00000000000000000000000000000000000000000000000000000000081526004016100ff90610396565b60405180910390fd5b61015a81600160003373ffffffffffffffffffffffffffffffffffffffff1673ffffffffffffffffffffffffffffffffffffffff1681526020019081526020016000205461020690919063ffffffff16565b600160003373ffffffffffffffffffffffffffffffffffffffff1673ffffffffffffffffffffffffffffffffffffffff168152602001908152602001600020819055503373ffffffffffffffffffffffffffffffffffffffff167f1b851e1031ef35a238e6c67d0c7991162390df915f70eaf9098dbf0b175a6198826040516101e39190610235565b60405180910390a250565b60016020528060005260406000206000915090505481565b6000818361021491906103e5565b905092915050565b6000819050919050565b61022f8161021c565b82525050565b600060208201905061024a6000830184610226565b92915050565b600080fd5b61025e8161021c565b811461026957600080fd5b50565b60008135905061027b81610255565b92915050565b60006020828403121561029757610296610250565b5b60006102a58482850161026c565b91505092915050565b600073ffffffffffffffffffffffffffffffffffffffff82169050919050565b60006102d9826102ae565b9050919050565b6102e9816102ce565b81146102f457600080fd5b50565b600081359050610306816102e0565b92915050565b60006020828403121561032257610321610250565b5b6000610330848285016102f7565b91505092915050565b600082825260208201905092915050565b7f6465706f7369742063616e6e6f74206265203000000000000000000000000000600082015250565b6000610380601383610339565b915061038b8261034a565b602082019050919050565b600060208201905081810360008301526103af81610373565b9050919050565b7f4e487b7100000000000000000000000000000000000000000000000000000000600052601160045260246000fd5b60006103f08261021c565b91506103fb8361021c565b9250827fffffffffffffffffffffffffffffffffffffffffffffffffffffffffffffffff038211156104305761042f6103b6565b5b82820190509291505056fea2646970667358221220129f03d4bdc4497a57cf03a777e08a9cb8804047c4aa2b52de9f22643d9d559464736f6c63430008090033",
  "immutableReferences": {},
  "source": "// SPDX-License-Identifier: UNLICENSED\n\npragma solidity >=0.5.0 <0.9.0;\n\nimport '@openzeppelin/contracts/utils/math/SafeMath.sol';\n\n\ncontract ReentrancyGuard {\n  using SafeMath for uint256;\n\n  event LogDeposit(address indexed sender, uint amount);\n\n\n  mapping(address => uint256) private timeEnabled;\n  mapping(address => uint256) public sales;\n\n  modifier rateLimiter(uint _time) {\n    require(timeEnabled[msg.sender].add(_time) < block.timestamp);\n    timeEnabled[msg.sender] = block.timestamp;\n    _;\n  }\n  \n\n  function deposit(uint _amount) external payable {\n    require(_amount > 0, 'deposit cannot be 0');\n    sales[msg.sender] = sales[msg.sender].add(_amount);\n    emit LogDeposit(msg.sender, _amount);\n  }\n \n\n\n  function getBal() public view returns(uint) {\n    return address(this).balance;\n  }\n\n}\n",
  "sourcePath": "/home/sprtd/Desktop/Udacity/lesson-5-flight-surety/reentrancy-guard/contracts/ReentrancyGuard.sol",
  "compiler": {
    "name": "solc",
    "version": "0.8.9+commit.e5eed63a.Emscripten.clang"
  },
  "schemaVersion": "3.4.3",
  "updatedAt": "2021-10-08T06:10:11.722Z",
  "devdoc": {
    "kind": "dev",
    "methods": {},
    "version": 1
  },
  "userdoc": {
    "kind": "user",
    "methods": {},
    "version": 1
  }
}